:020000040800F2
:10000000E8B10020450100084D010008F142000858
:1000100051010008530100085501000800000000CC
:100020000000000000000000000000005701000870
:100030005901000800000000B70100080DB00008D9
:100040005F0100085F0100085F010008ED930008F0
:100050005F0100085F0100085F0100085F01000800
:100060005F0100085F0100085F0100085F010008F0
:100070005F0100085F0100085F0100085F010008E0
:100080005F0100085F0100085F0100085F010008D0
:1000900059C300085F0100085F0100085F01000804
:1000A0005F0100085F0100085F0100085F010008B0
:1000B00065B10008EDB100085F0100085F010008AC
:1000C0005F0100085F0100085F0100085F01000890
:1000D0005F010008C1BF00085F0100085F01000860
:1000E0005F0100085F0100080DC200085F01000801
:1000F0005F0100085F0100085F0100085F01000860
:100100005F0100085F01000821B200085F010008DC
:100110005F0100085F0100085F0100085F0100083F
:100120005F0100085F0100085F0100085F0100082F
:10013000DFF80CD002F07CFB004800477167010833
:10014000E8B100200648804706480047FEE7FEE782
:10015000FEE7FEE7FEE7FEE7FEE7FEE7FEE7FEE777
:100160002DB0000831010008EFF3108072B670471F
:1001700080F310887047204C204D25604FF000041C
:1001800084F309881E4C4FF0010525701D4C4FF07B
:100190008055256062B6FEE730B41A4C4FF08055AA
:1001A000256030BC704730B4164C4FF08055256048
:1001B00030BC704700BF72B6EFF3098028B1203819
:1001C00080E8F00F10490968086000B50F488047C3
:1001D0005DF804EB0E480F490A7802700A480E4990
:1001E0000A680260106890E8F00F203080F30988F8
:1001F0004EF0040E62B6704720ED00E00000FFFFF5
:10020000F700002004ED00E0100100200588000840
:10021000F4000020F50000201801002010B5FF4870
:1002200000680DF043F8FE4800680DF03FF8FD4807
:1002300000680DF03BF8FC4800680DF037F8FB480B
:1002400000680DF033F8FA4800680DF02FF8F9480F
:1002500000680DF02BF810BD10B500244FF40070AD
:100260000DF026F8ED4908600846006800B9012441
:100270004FF400700DF01CF8E9490860084600686A
:1002800000B901244FF400700DF012F8E549086040
:100290000846006800B90124A0200DF009F8E249E1
:1002A00008600846006800B9012440200DF000F8FD
:1002B000DE4908600846006800B9012440200CF0BF
:1002C000F7FFDB4908600846006800B901244FF4D5
:1002D000F8700CF0EDFFD74908600846006800B9D7
:1002E00001240CB1FFF79AFF204610BD2DE9F0471D
:1002F00004460D461646701B00EBD07105EB6109F4
:1003000054F8397004EBC901486802F09FF8804640
:1003100054F8350044F8390004EBC500406804EB9C
:10032000C9014860A94605F1010A1DE054F83A00E8
:10033000394602F037F915D854F83A0044F8390034
:1003400004EBCA00406804EBC901486009F10109E7
:1003500054F8390044F83A0004EBC900406804EB53
:10036000CA0148600AF1010AB245DFDDA9EB0500C8
:10037000012805DDA9F1010229462046FFF7B6FF55
:10038000A6EB0900012805DD324609F101012046EE
:10039000FFF7ACFF44F83970404602F02BF804EB4D
:1003A000C9014860BDE8F0872DE9F84F04460D46C5
:1003B00016461F464FF0000828E04FF0000920E0E5
:1003C0004FF0000BDA4612E00B9A0AFB029255F846
:1003D00022100A9A08FB02A254F8220001F006FE3D
:1003E0005946009001F0AAFD83460AF1010A0A98D5
:1003F0008245E9DB0B9808FB009046F820B009F134
:1004000001090B988145DBDB08F10108B845D4DB15
:10041000BDE8F88F024612B909B900207047002ADA
:1004200002DD09B90020F9E7002903DD8A4201DD78
:100430000120F3E7002A03DD914201D10220EDE71C
:10044000002A03DD8A4201DA0320E7E71AB900290E
:1004500001DD0420E2E7002A08DA101E01DB034672
:1004600000E043428B4201DA0520D7E7002A08DA90
:10047000101E01DB034600E043428B4201D10620FF
:10048000CCE7002A0ADA101E01DB034600E04342F3
:100490008B4203DD002901DD0720BFE719B9002ADF
:1004A00001DA0820BAE7002903DA914201DD0920C8
:1004B000B4E7002A03DA914201D10A20AEE7002A0C
:1004C00003DA914201DA0B20A8E71AB9002901DA10
:1004D0000C20A3E700290ADA081E01DB034600E02E
:1004E0004342934203DD002A01DD0D2096E70029F7
:1004F00008DA081E01DB034600E04342934201D1C3
:100500000E208BE7002908DA081E01DB034600E015
:100510004342934201DA0F2080E700207EE730B5A6
:10052000034601B10AB9002030BD412901D0412A5A
:1005300001D10020F8E7491E521E03EBC20000EB78
:10054000E100047801F007050120A840044201D031
:100550000120E9E70020E7E72DE9FE4F04460D46BC
:1005600016461F4600200190781C82000021324868
:100570000CF0A0FE781C8200002130480CF09AFE9E
:100580004FF0000819E04FF0000912E004EBC8003A
:1005900000EBE900017809F00702012090400142D8
:1005A00005D04FF07E51019801F0C8FC019009F18F
:1005B0000109B145EADB08F10108A845E3DB38464B
:1005C00001F018FF82460146019801F041FD0190BB
:1005D0000120029049E04FF0000AD0463AE04FF087
:1005E000000912E004EBC90000EBE800017808F014
:1005F000070201209040014205D04FF07E51504645
:1006000001F09CFC824609F10109A945EADB029848
:1006100001F0F0FE0090019912E000000C050020AE
:100620001005002014050020180500201C050020DE
:100630002005002024050020C0AD0020D4AD0020FE
:1006400001F0D4FC8346514601F0ACFF00D804E031
:1006500008F10108701E4045C1DC00BFFD48029949
:1006600040F821800298401C0290781C0299814237
:10067000B1DB0120029035E04FF0000AD14626E0C0
:100680004FF0000812E004EBC90000EBE80001782D
:1006900008F0070201209040014205D04FF07E5142
:1006A000504601F04BFC824608F10108B045EADBF8
:1006B000029801F09FFE0090019901F097FC83469B
:1006C000514601F06FFF00D804E009F10109681EEE
:1006D0004845D5DC00BFE049029841F820900298D7
:1006E000401C0290781C02998142C5DB00200290D8
:1006F00032E0029991FBF7F1D74A52F82120029992
:1007000091FBF7F1491CD44B53F82110501800EB22
:10071000D0714910D14A1268029B42F82310029905
:1007200091FBF7F207FB1211CA4A52F821200299F5
:1007300091FBF7F307FB1311491CC64B53F821102B
:10074000501800EBD0714910C54A1268029B42F85C
:1007500023100298401C029007FB07F00299884280
:10076000C7DCBDE8FE8F2DE9F34F8FB04024402059
:100770000A901025AA000021B94800680CF09AFDE3
:10078000AA000021B54800680CF094FD042321461E
:100790000A9A0F98FFF7E0FEE2000021B1480068D6
:1007A0000CF088FD00200B9060E3AC4801680B98CA
:1007B00051F820000290AA4801680B9851F82000D7
:1007C000019002980830402801DD402001E00298A5
:1007D0000830089001980830402801DD402001E0F1
:1007E0000198083006900298083801D5002001E0F1
:1007F0000298083809900198083801D5002001E0D6
:1008000001980838079009980E9027E307980D90F3
:100810001CE3DDE90D120F98FFF781FE8146DDE94B
:100820000D12491C0F98FFF77AFE022101FB009977
:10083000DDE90D12891C0F98FFF771FE81440E9AB5
:10084000921C0D990F98FFF76AFEA9EB00090E9A0A
:10085000921C0D99491C0F98FFF761FE022101FBC4
:1008600010990E9A921C0D99891C0F98FFF757FE4C
:10087000A9EB000007B2DDE90D12891C0F98FFF704
:100880004EFE81460E9A521C0D99891C0F98FFF757
:1008900046FE022101FB00990E9A921C0D99891CBB
:1008A0000F98FFF73CFE8144DDE90D120F98FFF72A
:1008B00036FEA9EB00090E9A521C0D990F98FFF70E
:1008C0002EFE022101FB10990E9A921C0D990F9891
:1008D000FFF725FEA9EB00000FFA80F8002F02DBDE
:1008E000B8F1000F00DA00BF41463846FFF792FD2D
:1008F0000390039841100B9801FB05060398401CD8
:1009000040100B9900FB0510059002990E98401AB3
:10091000083000EB0010019A0D99891A084408303C
:10092000514951F820000490039810281CD2DFE8A8
:1009300000F0081C4A629FB3F2F0EFEEEDECEBEA38
:10094000E9E8384601F056FD8246049901F04EFB75
:1009500081464448006850F82610484601F0EEFAF7
:100960004049096841F826006CE2A7EB080001F055
:1009700041FD8246049901F039FB814639480068FF
:1009800050F82610484601F0D9FA3649096841F86E
:100990002600404601F02EFD8346344901F026FB37
:1009A0008246049901F022FB81462E480268059890
:1009B00052F82010484601F0C1FA2A490968059A00
:1009C00041F822003EE2404601F014FD83462749EB
:1009D00001F00CFB8246049901F008FB8146214896
:1009E000006850F82610484601F0A8FA1D49096829
:1009F00041F8260026E2384601F0FCFC83461B49FC
:100A000001F0F4FA8246049901F0F0FA81461548A3
:100A1000006850F82610484601F090FA114909681C
:100A200041F82600A8EB070001F0E4FC8246049997
:100A300001F0DCFA81460B480268059852F8201054
:100A4000484601F07BFA07490A68059942F82100F7
:100A5000F8E10000C0AD0020D4AD0020200500204A
:100A60001C05002010050020C0D40208F704B53F83
:100A7000404601F0BFFC8246049901F0B7FA814676
:100A8000FE48006850F82610484601F057FAFB4926
:100A9000096841F82600D5E107EB080001F0AAFC3F
:100AA0008246049901F0A2FA8146F448006850F8A1
:100AB0002610484601F042FAF049096841F826003C
:100AC000B7F1000901DB494601E0C9F10001084620
:100AD00001F090FCEA49009001F088FA83460499FD
:100AE00001F084FA8246E5480068059A50F8221021
:100AF000504601F023FAE1490968059A41F82200BD
:100B0000A0E166E14DE111E1F5E0BFE09FE069E0C1
:100B10004DE018E0FFE7404601F06CFC8346D84901
:100B200001F064FA8246049901F060FA8146D348E4
:100B3000006850F82610484601F000FACF490968CD
:100B400041F826007EE1404601F054FC8346CC4942
:100B500001F04CFA8246049901F048FA8146C748F0
:100B6000006850F82610484601F0E8F9C3490968C2
:100B700041F8260017EB080901D4494601E0C9F104
:100B80000001084601F036FC8346049901F02EFA74
:100B90008246BA480068059A50F82210504601F083
:100BA000CDF9B6490968059A41F822004AE1B7F142
:100BB000000901DB494601E0C9F10001084601F0E6
:100BC00019FC8346049901F011FA8246AB4800688B
:100BD00050F82610504601F0B1F9A849096841F8CB
:100BE00026002FE1A8EB070001F004FC82460499DF
:100BF00001F0FCF98146A148006850F826104846EB
:100C000001F09CF99D49096841F82600B8F10009F6
:100C100001DB494601E0C9F10001084601F0EAFBA9
:100C20009749009001F0E2F98346049901F0DEF95A
:100C3000824692480068059A50F82210504601F00A
:100C40007DF98E490A68059942F82100FAE0B8F169
:100C5000000901DB494601E0C9F10001084601F045
:100C6000C9FB8749009001F0C1F98346049901F05E
:100C7000BDF982468148006850F82610504601F0C0
:100C80005DF97E49096841F82600DBE0B7F100090B
:100C900001DB494601E0C9F10001084601F0AAFB69
:100CA0007749009001F0A2F98346049901F09EF97A
:100CB00082467248006850F82610504601F03EF90E
:100CC0006E49096841F82600A7EB080001F092FB85
:100CD0008246049901F08AF98146684802680598BD
:100CE00052F82010484601F029F964490A6805992C
:100CF00042F82100A6E0B8F1000901DB494601E015
:100D0000C9F10001084601F075FB8346049901F022
:100D10006DF982465948006850F82610504601F097
:100D20000DF95649096841F826008BE017EB0809D0
:100D300001D4494601E0C9F10001084601F05AFB1F
:100D40008346049901F052F982464C48006850F8F5
:100D50002610504601F0F2F84849096841F826008B
:100D6000B7F1000901DB494601E0C9F1000108467D
:100D700001F040FB4249009001F038F983460499A4
:100D800001F034F982463D480068059A50F8221077
:100D9000504601F0D3F839490A68059942F8210014
:100DA00050E0384601F026FB8346354901F01EF934
:100DB0008246049901F01AF981463048006850F8DB
:100DC0002610484601F0BAF82C49096841F8260077
:100DD00038E0B8F1000901DB494601E0C9F1000142
:100DE000084601F007FB2649009001F0FFF8834612
:100DF000049901F0FBF882462048006850F826105C
:100E0000504601F09BF81D49096841F8260017EB90
:100E1000080901D4494601E0C9F10001084601F082
:100E2000E9FA8346049901F0E1F882461348006824
:100E300050F82610504601F081F81049096841F831
:100E4000260000BF00BF0D98401C0D9006990D981C
:100E500088427FF7DEAC0E98401C0E9008990E98E1
:100E600088427FF7D3AC0B98401C0B900B98A8429C
:100E70007FF49BAC00200B901FE0000010050020C9
:100E8000F704B53F00200C9011E0DDE90B0101FBF8
:100E90000506FF49096851F82600FE4918F0B4F824
:100EA000FD49096841F826000C98401C0C900C98EC
:100EB0000828EADB0B98401C0B900B981028E1DB0C
:100EC00011B0BDE8F08F2DE9FF4F8BB004460D4601
:100ED0001E46199F0020079090E2079805EB8000BE
:100EE0000088ADF82800079805EB80004088ADF831
:100EF0002A000798401C05EB80000088ADF824000C
:100F00000798401C05EB80004088ADF82600BDF92D
:100F10002800BDF92410884272D1BDF92A0008903A
:100F200067E0002E41D04FF0FF383AE04FF0FF303D
:100F3000069031E0089810EB08002AD4089800EBDE
:100F400008011898814224DABDF928000699401852
:100F50001FD4BDF9281006980844B84219DABDF923
:100F600028100698084405900898404404EBC000F7
:100F7000059900EBE100007801F0070201219140A2
:100F800008430899414404EBC101059A01EBE201D1
:100F900008700698401C069006980228CAD108F1ED
:100FA0000108B8F1020FC1D116E0BDF92800059083
:100FB000089804EBC001059801EBE0000078059962
:100FC00001F00702012191400843089904EBC10296
:100FD000059902EBE1010870BDF92600BDF92A1060
:100FE000884203DD0898401C089002E00898401EE3
:100FF0000890BDF926100898814292D1FBE1FFE7E5
:10100000BDF92A00BDF92610884275D1BDF9280026
:1010100008906AE0002E42D04FF0FF383BE04FF0DE
:10102000FF30069032E00699089840182BD40699B4
:10103000089808441899884225DABDF92A0010EB6F
:10104000080020D4BDF92A004044B8421BDA0699B2
:10105000089808440590BDF92A00404404EBC001FB
:10106000059801EBE0000078059901F007020121E5
:1010700091400843BDF92A10414404EBC10205998F
:1010800002EBE10108700698401C069006980228C1
:10109000C9D108F10108B8F1020FC0D118E00898D1
:1010A0000590BDF92A0004EBC001059801EBE000B2
:1010B0000178059800F00702012090400143C8B272
:1010C000BDF92A1004EBC101059A01EBE201087099
:1010D000BDF92400BDF92810884203DD0898401CA2
:1010E000089002E00898401E0890BDF92410089866
:1010F00081428FD17FE1FFE7BDF92410BDF928209F
:10110000881A01F077F98246BDF92610BDF92A2028
:10111000881A01F06FF98346514600F099FF814625
:1011200001F0F9F9CDE9020121F00041CDE900011A
:101130005AA00CC8009801F001FA13D2BDF924108E
:10114000BDF92820881A01F055F98146BDF926100D
:10115000BDF92A20881A01F04DF98246494600F06F
:1011600077FF12E0BDF92610BDF92A20881A01F098
:1011700041F98146BDF92410BDF92820881A01F0F3
:1011800039F98246494600F063FF0490BDF92420F6
:10119000BDF92830D01ABDF92620BDF92A30D11A60
:1011A00001D40B4600E04B42002801DB024600E080
:1011B000424293426BDA002008907EE0089801F0EA
:1011C00019F90390049900F011FF834601F03EF9EC
:1011D000BDF92A1000EB0109BDF92800089900EBC0
:1011E000010A002E3CD04FF0FF3835E04FF0FF30C1
:1011F00006902CE019EB080026D409EB080018999A
:10120000884221DA06981AEB00001DD40698504453
:10121000B84219DA0AF10100059009EB080004EB65
:10122000C000059900EBE1000178059800F0070285
:10123000012090400143C8B209EB080104EBC10151
:10124000059A01EBE20108700698401C069006988A
:101250000228CFD108F10108B8F1020FC6D113E07E
:10126000CDF814A004EBC900DDF814A000EBEA00EF
:1012700001780AF00702012090400143C8B204EB54
:10128000C90101EBEA010870BDF924000AE01EE083
:101290001005002085EBD13E140500200000000061
:1012A0000000F03FBDF92810884203DD0898401C7B
:1012B000089002E00898401E0890BDF92400BDF98E
:1012C0002810401A089988427FF478AF92E0BDF95F
:1012D0002420BDF92830D01ABDF92620BDF92A30C6
:1012E000D11A01D40B4600E04B42002801DB024634
:1012F00000E0424293427DDB0020089072E0BDF99D
:101300002A10089801EB0009089801F073F803907F
:10131000049900F06BFE834601F098F8BDF928109F
:1013200000EB010A002E3CD04FF0FF3835E04FF0C3
:10133000FF3006902CE019EB080026D409EB0801D9
:101340001898814221DA06981AEB00001DD40698FD
:101350005044B84219DA06985044059009EB080049
:1013600004EBC000059900EBE1000178059800F05E
:101370000702012090400143C8B209EB080104EBC9
:10138000C101059A01EBE20108700698401C069025
:1013900006980228CFD108F10108B8F1020FC6D192
:1013A00013E0CDF814A004EBC900DDF814A000EBA5
:1013B000EA0001780AF00702012090400143C8B218
:1013C00004EBC90101EBEA010870BDF92600BDF983
:1013D0002A10884203DD0898401C089002E0089813
:1013E000401E0890BDF92600BDF92A10411A089840
:1013F000814284D100BF0798401C07900D98411E80
:10140000079881427FF469AD0FB0BDE8F08F2DE9F8
:10141000F04F099C15464FF0FF360F46B4464FF08B
:10142000000935E000EB890ABAF902A0BA4504DAEE
:1014300000EB890ABAF902A000E0BA46574600EB71
:10144000890ABAF900A0AA4504DA00EB890ABAF9B8
:1014500000A000E0AA46554600EB890ABAF902A0AE
:10146000E24504DD00EB890ABAF902A000E0E24699
:10147000D44600EB890ABAF900A0B24504DD00EBBE
:10148000890ABAF900A000E0B246564609F10109FE
:10149000DDF828A0D145C5DBACEB070A0AF1010A4B
:1014A00093FBFAFA0AF1010EA6EB050A0AF1010A0A
:1014B00094FBFAFA0AF101084FF000092BE000EB67
:1014C000890ABAF902A0AAEB070A0AFB03FAACEBF5
:1014D000070B0BF1010B9AFBFBFAF2440FFA8AFAA5
:1014E00000EB890BABF802A000EB890ABAF900A067
:1014F000AAEB050A0AFB04FAA6EB050B0BF1010B9C
:101500009AFBFBFAC2440FFA8AFA00EB890BABF89C
:1015100000A009F10109DDF828A0D145CFDBBDE825
:10152000F08F2DE9FF4784B014461D46BDF9100029
:10153000BDF91410884223D1002619E0BDF810002F
:10154000296804EB81010880BDF81200304400B224
:10155000296804EB810148802868401C2860BDF997
:101560001600BDF91210884201DD761C00E0761EDF
:10157000BDF91600BDF91210401AB042DED1E9E003
:10158000BDF91200BDF91610884223D1002619E0DA
:10159000BDF81200296804EB81014880BDF81000F5
:1015A000304400B2296804EB810108802868401C9F
:1015B0002860BDF91400BDF91010884201DD761CC9
:1015C00000E0761EBDF91400BDF91010401AB042BB
:1015D000DED1BFE0BDF91410BDF91020881A00F06B
:1015E00009FF8146BDF91610BDF91220881A00F0D6
:1015F00001FF8246494600F02BFD804600F08BFF3C
:10160000CDE9020121F00041CDE90001AFF27430D3
:101610000CC8009800F092FF13D2BDF91410BDF968
:101620001020881A00F0E6FE8046BDF91610BDF9BC
:101630001220881A00F0DEFE8146414600F008FDC7
:1016400012E0BDF91610BDF91220881A00F0D2FE82
:101650008046BDF91410BDF91020881A00F0CAFEAA
:101660008146414600F0F4FC0746BDF91420BDF95F
:101670001030D01ABDF91620BDF91230D11A01D49C
:101680000B4600E04B42002801DB024600E04242EC
:1016900093422FDC002625E0BDF81000304400B254
:1016A000296804EB81010880304600F0A3FE8146E2
:1016B000394600F09BFC804600F0C8FEBDF81210D1
:1016C000084400B2296804EB810148802868401C66
:1016D0002860BDF91400BDF91010884201DD761CA8
:1016E00000E0761EBDF91400BDF91010401AB0429A
:1016F000D2D12EE0002625E0BDF81200304400B221
:10170000296804EB81014880304600F073FE814671
:10171000394600F06BFC804600F098FEBDF81010D2
:10172000084400B2296804EB810108802868401C45
:101730002860BDF91600BDF91210884201DD761C43
:1017400000E0761EBDF91600BDF91210401AB04235
:10175000D2D100BF08B0BDE8F0872DE9F84F0446AC
:101760000D461646701E00EBD0714FEA6109A5EBDD
:1017700009000090CA46A8000BF09AFD8346AA0013
:101780002146584600F08CFBB54205DB06EBD671CE
:101790004910B6EB410101D1BDE8F88F4F463CE05E
:1017A000002004EB8701088004EB87014880CAF120
:1017B00000081BE004EB8700008807EB08010BEB37
:1017C00081010988084400B204EB8701088004EB1A
:1017D0008700408807EB08010BEB8101498808442A
:1017E00000B204EB8701488008F10108D045E1DD33
:1017F00004EB8700B0F9000090FBF6F000B204EBB8
:101800008701088004EB8700B0F9020090FBF6F036
:1018100000B204EB870148807F1C00988742BFDB41
:1018200058460BF043FDB7E72DE9FF4F91B0044652
:101830000D461E9E0327802010900F9040200E9092
:101840000D9000200B900A90814680200990052081
:10185000049029462046049AFFF77FFF4FF0010AC3
:1018600029E004EB8A01B1F90010AAF1010204EBAE
:101870008202B2F90020881A01D4014600E04142F8
:10188000089104EB8A01B1F90210AAF1010204EBFC
:101890008202B2F90220881A01D4014600E04142D6
:1018A0000791DDE90710884201DB089800E00798FE
:1018B00081440AF1010AAA45D3DB4FEA89000BF003
:1018C000F7FC80464FEA8902002140460BF0F2FC0B
:1018D0004FF0000A15E00AF1010004EB8001042238
:1018E00003A800F0DDFA04EB8A01042202A800F04C
:1018F000D7FA0AAB4246DDE90201FFF712FE0AF110
:10190000010A681E5045E6D14FEA8900B0FBF7F0A6
:1019100003900BF0CDFC0C904FEA8900B0FBF7F080
:101920000246002103900C980BF0C4FC4FF0000A13
:1019300013E008EB8A000088DDE90B2101EB82014E
:10194000088008EB8A004088DDE90B2101EB820169
:1019500048800B98401C0B90BA44CA45E9DB4046CE
:101960000BF0A4FC0B9B0E9ACDE90023DDE90C03E0
:10197000DDE90F12FFF74BFD4FF400720021FD4827
:1019800000680BF097FCDDE90D23CDE9002301236E
:10199000F848DDE90B210068FFF795FA0C980BF089
:1019A00085FCF44809990068FEF7DDFE2823099AB2
:1019B000CDE900230123F048F0490268F0480068AF
:1019C000FEF7F2FC1498012806D0022809D003285B
:1019D0000CD0042814D10EE0002006900A200590B7
:1019E00012E00A200690242005900DE024200690A5
:1019F0003E20059008E0002006903E20059003E080
:101A0000002015B0BDE8F08F00BF4FF4F872002140
:101A1000DC4800680BF04EFC4FF0000A40E04FF04D
:101A2000000B30E0069A524402EB8202D64B03EBE5
:101A3000421252F82B10D04A126852F82B0000F0D4
:101A4000CFFA0290069A524402EB8202CE4B03EB8D
:101A5000421252F82B10C84A126852F82B0000F0BC
:101A6000BFFA0190029900F0C1FA0390C5480068DE
:101A700050F83A10039800F061FAC249096841F839
:101A80003A000BF1010BBBF1280FCBD1504600F00F
:101A9000B1FCBC49096801EBCA0148600AF1010ABE
:101AA000DDE90501401A5045B9D1DDE90501401ACB
:101AB000421E0021B3480068FEF718FC4FF0000AF0
:101AC0000EE0B049096801EBCA01486800F0BEFCAD
:101AD00006990844AD49085C06F80A000AF1010AB3
:101AE00013988245EDDB002006F80A00307888E77D
:101AF0002DE9F84F04460D4616461F46DDF82880AE
:101B00004FF000094FF6FF7AD346012D02DCC8469C
:101B1000BDE8F88F4FF000091CE004EB8900B0F934
:101B2000001009F1010004EB8000B0F900008142CF
:101B30000BD104EB8900B0F9021009F1010004EBAC
:101B40008000B0F90200814200D006E009F10100F6
:101B50001FFA80F9681E4845DFDC00BF681E484553
:101B600000D1D5E74FF0000919E004EB8900B0F986
:101B70000000504504DA04EB890000881FFA80FA5F
:101B800004EB8900B0F90200584504DA04EB89003F
:101B900040881FFA80FB09F101001FFA80F9A9456E
:101BA000E3DB4FF0000915E004EB89000088A0EBAF
:101BB0000A0000B204EB8901088004EB8900408828
:101BC000A0EB0B0000B204EB8901488009F1010091
:101BD0001FFA80F9A945E7DB3B46324629462046F5
:101BE000CDF80080FFF720FE92E72DE9F84F4FF087
:101BF0000009C3F800900124EBE0A4F1010900EB17
:101C00008909B9F9005000EB8409B9F900A0CDF8B1
:101C100000A0A4F1010900EB8909B9F9026000EB09
:101C20008409B9F90270DDF800A0BAEB050901D406
:101C3000CA4601E0C9F1000AD446B7EB060901D44F
:101C4000CA4601E0C9F1000AD646F44559DD4FF015
:101C5000000853E0DDF80090A9450ADD05EB08090E
:101C60000FFA89F9D3F800A002EB8A0AAAF80090CB
:101C700009E0A5EB08090FFA89F9D3F800A002EBF7
:101C80008A0AAAF80090B7421ADDD3F800A002EB46
:101C90008A0ABAF900A0BAEB050901D4CA4601E0E4
:101CA000C9F1000A0AFB0EFA9AFBFCFAB2440FFAD9
:101CB0008AFAD3F800B002EB8B0BABF802A01AE063
:101CC000D3F800A002EB8A0ABAF900A0BAEB050922
:101CD00001D4CA4601E0C9F1000A0AFB0EFA9AFBD8
:101CE000FCFAA6EB0A0A0FFA8AFAD3F800B002EB64
:101CF0008B0BABF802A01B1D08F10108E045A9DB26
:101D000066E04FF0000861E0B7420ADD06EB080923
:101D10000FFA89F9D3F800A002EB8A0AAAF8029018
:101D200009E0A6EB08090FFA89F9D3F800A002EB45
:101D30008A0AAAF80290DDF80090A94528DDD3F8B8
:101D400000A002EB8A0ABAF902A0BAEB060901D494
:101D5000CA4601E0C9F1000A0AFB0CFA9AFBFEFA36
:101D6000AA440FFA8AFAD3F800B002EB8B0BABF857
:101D700000A028E00C0500201805002084DE0208E1
:101D80001405002024050020842E03084455030870
:101D9000D3F800A002EB8A0ABAF902A0BAEB06094E
:101DA00001D4CA4601E0C9F1000A0AFB0CFA9AFB09
:101DB000FEFAA5EB0A0A0FFA8AFAD3F800B002EB92
:101DC0008B0BABF800A01B1D08F10108F0459BDB55
:101DD000641C8C42FFF611AFBDE8F88F2DE9F05F6F
:101DE0000546002092469B4688460646814640248A
:101DF0001BE0284641464746224600F0ECFB53468E
:101E00005A46C01A914110D311461846224600F096
:101E1000D3FB2D1A67EB01084F4622460120002113
:101E200000F0CAFB17EB00094E41201EA4F101048B
:101E3000DFDC484631462A464346BDE8F09F2DE99F
:101E4000F0410024061B254671F1000605DA012445
:101E50000027D0EB070067EB0101161E73F10006A7
:101E600005DA0027D2EB0702012567EB0303FFF732
:101E7000B5FF86460E4617469C46AC4204D0002568
:101E8000D0EB050E65EB010624B10020D2EB000774
:101E900060EB030C704631463A466346BDE8F0817C
:101EA00040EA01039B0703D009E008C9121F08C0DC
:101EB000042AFAD203E011F8013B00F8013B521E5C
:101EC000F9D27047421E12F8013F002BFBD111F8E6
:101ED000013B02F8013B002BF9D1704730B50546B4
:101EE0002A460B4612F8010B13F8014B08B1A04229
:101EF000F8D01CB1002802D06D1CF1E7284630BD97
:101F0000421C10F8011B0029FBD1801A704710B544
:101F1000002200E0521C835C8C5CA34201D1002BA8
:101F2000F8D1D8B2E1B2401A10BD034611F8012B26
:101F300000F8012B002AF9D118467047F0B480EA66
:101F40000102D40F4200B2EB410F02D20246084612
:101F500011464A0042D0C30DDDB2C1F3C752AD1ADB
:101F6000202D35DAC1F3160141F4000204B15242CA
:101F7000C5F1200602FA06F12A411044B3EBD05F06
:101F800023D0C4B1012DA0EBC35009DCF0BC4FF04D
:101F9000004202EAC352DBB200F5000000F046BB8B
:101FA000400000F1807000EBC350A0F1807040EA67
:101FB000D170490009E0490841EAC071A0EBC35063
:101FC00000F50000400800EBC350F0BC00F025BB5A
:101FD0006142012202EB4101001BF6E7F0BC7047B1
:101FE00081F00041AAE780F00040A7E780EA010203
:101FF00010B502F00043400022D04A001FD0010E6D
:1020000001EB1261C0F35600C2F3560240F4000027
:1020100042F40002A0FB022000047F39140400D027
:10202000401C50EA124001D44000491EC2B20C06C6
:1020300004EBD010401C4008802A02D003E00020AE
:1020400010BD20F00100002900DA0020184310BD67
:1020500030B480EA010202F0004530F0004221F085
:10206000004013D090B1C30DD40DC2F31601C0F3DC
:102070001600E41A41F4000140F400027D3491425C
:1020800001D3641C00E04900002C02DA30BC0020BF
:1020900070474FF400000023914201D3891A034393
:1020A00040084FEA4101F7D151B1914202D14FF0BE
:1020B000004105E002D24FF0010101E06FF00101A3
:1020C00003EBC450284430BC00F0A7BA420005D04E
:1020D000C0F3C7525242914201DC0020704700EB2E
:1020E000C15070472DE9FE4F804681EA0300C00FC2
:1020F0000C46009021F0004123F00045B8EB0200AF
:10210000A94105D24046214690461C460B46024650
:1021100023F00040104347D0270DC7F30A00C3F354
:102120000A510290401A019040286BDAC3F3130061
:1021300040F4801B0098924620B10023D2EB030AA2
:1021400063EB0B0B01985946C0F14002504600F07A
:1021500033FA06460D4650465946019A00F04BFAAE
:1021600010EB08006141002487EA115284EAE7730A
:102170001A4340D0009A62B3019A012A4FEA0752EB
:1021800015DC001B61EB02014FF0004202EA07522E
:10219000CDE90042001C41F5801132462B4600F08B
:1021A00082FA03B0BDE8F08F40462146F9E7001BF4
:1021B00061EB0201001C41F5801300185B412018FF
:1021C000A2F5001747EB030140EAD570B6196D413F
:1021D00011E06D084FEA360645EAC0754FEA07522E
:1021E000001B61EB0201001C41F5801149084FEA18
:1021F00030000019514132462B4603B0BDE8F04F84
:1022000000F042BA0098012240000023D0EB020205
:1022100063EBE073009821464FEAE074B8EB0000EE
:1022200061EB0401E9E783F000435BE781F00041E3
:1022300058E72DE9FE4F81EA030404F0004421F041
:10224000004100944FF0000B23F0004350EA0104DA
:102250005ED052EA03045BD0C3F30A54C1F30A55BB
:102260002C44A4F2F3340194A0FB0254C1F31301F3
:1022700041F48011C3F3130343F4801301FB0244C0
:1022800000FB034E840A970A44EA815447EA8357C5
:10229000A4FB076802958D0A05FB07854FEA932C7E
:1022A00004FB0C542705029D4FEA065847EA1637EF
:1022B000B5EB08056EEB070C870E920E47EA811707
:1022C00042EA8312A7FB0201B6EB0B0164EB0004A8
:1022D0002B0D43EA0C335E1844EB1C50DA46514692
:1022E000E7FB0201C5F313044FEA0B3343EA14532F
:1022F0004FEA0432019C43EA0603A4F10C04029461
:10230000009CCDE900B400F0CEF903B0BDE8F08F39
:1023100000200146F9E72DE9F04D81EA030404F0BD
:10232000004B21F0004514464FF0000A23F0004115
:1023300050EA050220D054EA01021DD0C5F30A5725
:102340000246C5F31303C1F31300C1F30A5640F468
:10235000801543F48013A7EB0608101BD64608F23D
:10236000FD3873EB050002D308F1010801E0921873
:102370005B41B8F1000F03DA00200146BDE8F08DA3
:1023800000204FF48011064684460EE0171B73EBC5
:10239000050705D3121B63EB050306434CEA010C4A
:1023A00049084FEA300092185B4150EA0107EDD12D
:1023B00052EA030012D082EA040083EA05010843CE
:1023C00005D0101BAB4106D20122002306E00022FB
:1023D0004FF0004302E06FF0010253101AEB0600C9
:1023E0004CEB085110EB0A0041EB0B01BDE8F04D3E
:1023F00000F04AB9C10F80EAE0700844CA0796238A
:10240000002100F013B996230022114600F00EB906
:102410000EB5C10F80EAE0700844CA07002140F2FF
:1024200033438DE80E000A460B4600F03CF903B03A
:1024300000BD0EB540F2334102910021CDE90011FB
:102440000A460B4600F02FF903B000BD00F0004231
:1024500020F00040C10DC0F3160040F400007F29B9
:1024600001DA00207047962903DCC1F19601C840CB
:1024700001E096398840002AF4D04042704720F0AD
:102480000040C10DC0F3160040F400007F2901DABE
:1024900000207047962903DCC1F19601C8407047BF
:1024A00096398840704770B5C1F30A5201F0004573
:1024B0000024C1F3130140F2FF3341F480119A422A
:1024C00001DA002070BD40F233439A42A2F2334257
:1024D00003DC524200F07FF800E090402C43F1D042
:1024E000404270BDC1F30A5210B5C1F3130140F26E
:1024F000FF3341F480119A4201DA002010BD40F20E
:1025000033439A42A2F2334203DC524200F063F8B2
:1025100010BD904010BD00F0004230F000400AD0E5
:10252000C10D01F56071C0F3160042EA0151C20805
:1025300040071143704700200146704730B5041E24
:1025400071F1000404DB4FF00044404264EB0101F0
:10255000141E73F1000405DB1C464FF00043524289
:1025600063EB04038B4208BF824230BD01F000439D
:1025700030B421F0004150EA010206D00A0DA2F564
:102580006072C1F31301002A02DC30BC00207047E6
:10259000440F44EAC104C100E01830BC00EBC25053
:1025A00000F03BB8002801DBC0F10040002901DB4E
:1025B000C1F1004181427047202A04DB203A00FA31
:1025C00002F1002070479140C2F1200320FA03F38A
:1025D000194390407047202A04DB203A21FA02F088
:1025E0000021704721FA02F3D040C2F1200291404D
:1025F000084319467047202A06DBCB17203A41FAD8
:1026000002F043EAE07306E041FA02F3D040C2F17F
:10261000200291400843194670470029A8BF70471F
:10262000401C490008BF20F00100704710B4B0FA08
:1026300080FC00FA0CF050EA010404BF10BC7047A3
:1026400049B1CCF1200421FA04F411FA0CF118BFBD
:10265000012121430843A3EB0C01CB1D4FEA00618C
:102660004FEA102042BF002010BC704700EBC3505F
:1026700010440029A4BF10BC7047401C490008BF8B
:1026800020F0010010BC704710B5141E73F1000457
:1026900008DA401C41F1000192185B411A4301D154
:1026A00020F0010010BD2DE9F04D92469B4611B17E
:1026B000B1FA81F202E0B0FA80F220329046FFF7E0
:1026C0007BFF04460F4640EA0A0041EA0B015346ED
:1026D0005A46084313D0114653EA010019D0C8F1F5
:1026E00040025046FFF777FF05460E4650465946D2
:1026F0004246FFF761FF084305D0012004E0204671
:102700003946BDE8F08D0020054346EAE0762C43CB
:1027100037430A986305E40AA0EB08000022FD0A8B
:1027200044EA47540A3002D500200146E9E7010592
:1027300010196941DDE9084500196941BDE8F04D0E
:10274000A2E72DE9F04D00231A461B1A8A4103DB4C
:1027500000200146BDE8F08DC1F30A52C1F3130118
:1027600041F480154FF0000BD10702D100186D41E4
:10277000521E0027044640F2FF11384601EB620A60
:102780003E468046024600204FF48011FFF723FFAB
:10279000C2197141BB1846EB0100B4EB030C75EB99
:1027A000000C04D3E41A65EB000517460E46241905
:1027B00008F101006D4180463428E3DDF91946EB4C
:1027C0000600091BA84103D24FF0FF32134601E077
:1027D000002213461BEB070046EB0A51BDE8F04D03
:1027E000FFF752BF10B500F0004420F00040C20DCA
:1027F000C0F3160040F400007F2A07DA7D2A00DAD1
:102800007D22763A00FA02F1002008E0962A09DCDF
:10281000A2F1760100FA01F1C2F19602D040FFF771
:10282000FCFE01E0963A9040002C00D0404210BDE2
:10283000064C074D06E0E06840F0010394E807000D
:1028400098471034AC42F6D3FDF776FC3079030894
:102850005079030870B521F0004303430CD0C1F355
:102860000A550024D5EB040564EB0403D617AD1A12
:10287000B34102DB0020014670BD201841EB02513C
:1028800070BD70B58C1810F8015B15F0070301D10D
:1028900010F8013B2A1106D110F8012B03E010F8C3
:1028A000016B01F8016B5B1EF9D12B0705D40023E6
:1028B000521E0DD401F8013BFAE710F8013BCB1A88
:1028C000921C03E013F8015B01F8015B521EF9D57D
:1028D000A142D8D3002070BD0029816802D041F008
:1028E000010101E021F00101816070470D4910B53F
:1028F000884202D1012144150AE00B49884202D1E5
:102900000121041504E0094988420AD10121CC03C0
:10291000204606F093FB2046BDE81040002106F05B
:102920008DBB10BD0024014000280140003C014047
:10293000014600208968490700D501207047C06C16
:1029400080B270470246002012680A4200D001207F
:102950007047014600208968090700D501207047AB
:1029600010B542680E4B0C791A400B6842EA0422FB
:102970001343436082680B4B1A40D1E9024323435F
:102980004C7942EA440213438360C26A097C22F410
:102990007002491EC9B242EA0151C16210BD000075
:1029A000FFFEF0FFFDF7F1FF70B5072609290AD9F0
:1029B000C568A1F10A0404EB4404A640B543A34052
:1029C0001D43C56007E0056901EB4104A640B5431E
:1029D000A3401D4305611F23072A09D2446B521EE1
:1029E00002EB820293409C4391400C43446370BDD0
:1029F0000D2A09D2046BD21F02EB820293409C4342
:102A000091400C43046370BDC46A0D3A02EB82022C
:102A100093409C4391400C43C46270BD816841F077
:102A20000801816070470029816802D041F4A0014B
:102A300001E021F4A00181607047816841F0040148
:102A40008160704710B5FF2000F037F855280AD094
:102A50005521FF2000F077F8FF2000F02EF85528D0
:102A600001D0012010BD002010BD01F0B7BC70B531
:102A700015460E46044608E02046641CA4B200F049
:102A80001CF86D1E06F8010BADB2002DF4D170BD1F
:102A90002DE9F0410D460146002004464E1908E09C
:102AA0000702301B401E80B200F007F8641C384457
:102AB000E4B2AC42F4D3BDE8F08110B5044601F0B5
:102AC00031FD200AA02101EB4000C0B201F0FAFC68
:102AD00001F06AFDE0B201F0F5FC01F065FD01F0E6
:102AE00021FDA12001F0EEFC01F05EFD002001F0CF
:102AF000B3FC044601F036FD204610BD70B5144607
:102B00000D46064606E02978304600F01CF8761C93
:102B1000B6B26D1C641EA4B2F5D270BD2DE9F041B1
:102B200016460D460746002409E0E00025FA00F0AD
:102B3000C1B2381980B200F006F8641CE4B2B442A5
:102B4000F3D3BDE8F08170B50D46044601F0EAFC10
:102B5000200AA02101EB4000C0B201F0B3FC01F05B
:102B600023FDE0B201F0AEFC01F01EFD284601F0AD
:102B7000A9FC01F019FD01F0F5FCBDE8704042F23E
:102B800010700DF029BD000030B587B001214FF461
:102B9000017006F047FA4FF4004006F02DFA0220CB
:102BA000ADF8140000248DF8174005A9164801F06F
:102BB0006BF8164D2846FFF799FE4FF46020CDE9DB
:102BC000020401208DF804408DF8100000948DF867
:102BD000054069462846FFF7C3FE01212846FFF756
:102BE0007BFE2846FFF71AFF2846FFF7B2FE0028B3
:102BF000FAD12846FFF721FF2846FFF799FE002863
:102C0000FAD107B030BD00000008014000240140A7
:102C100010B5012006F01EFABDE81040002006F0B5
:102C200019BA000008B5024908440090008808BDA0
:102C3000006C004008B5024A10440090016008BDD5
:102C4000006C004010B578B14FF48054012805D0D5
:102C500002280FD11021012007F09EFE2146BDE879
:102C60001040022007F050BE1021BDE810400120A6
:102C700007F092BE10BDC1B2000A40EA01207047C1
:102C800010B5604B0020604C598803E05A68125C14
:102C90002254401C8842F9D35B48626820301F29C7
:102CA0004260A268826007D00220FFF7CBFF0020BD
:102CB0002060607B1A2221E0E17B282901D02A29AB
:102CC0000AD1D4F81100227D00BA20F0FF00104391
:102CD0009860E08A40BAD8604C4A2068904252D14D
:102CE0004B4A607B1268904203D8A27B0AB1102A3B
:102CF0000DD90220FFF7A6FF607B2422052107F0F3
:102D0000E5FE0021BDE81040012007F0BFBE2529E7
:102D100058D01ADC152971D00DDC08296ED005DCDD
:102D2000B9B3032936D004292DD163E00A2965D02F
:102D3000122928D132E01A390A2924D2DFE801F019
:102D40003632235E32232323233E8A2956D00EDCDB
:102D5000552953D006DC28293CD02A2940D02F29D8
:102D600011D143E05A2925D088290CD146E0A82961
:102D700044D004DC8F2941D09E2904D13EE0AA2909
:102D80003CD0AF293AD00220FFF75CFF607B2022C5
:102D9000B4E71BE0BDE8104007F066B8BDE810409E
:102DA00006F080BFBDE8104007F06AB8BDE81040EB
:102DB00006F0B2BFBDE8104006F0A8BFBDE8104065
:102DC00007F01CB8BDE8104006F0E0BFBDE81040B9
:102DD00007F05AB8D3E90212BDE8104006F0A2BFCE
:102DE000D3E90212BDE8104007F084B8BDE81040F6
:102DF00007F066B8BDE8104006F03CBFBDE81040E3
:102E000006F06ABF0004002090AD002055534243F5
:102E1000680400202DE9F84F0020ADF800004BF6C3
:102E2000BF7648F280084A4D4A4C40F68F7ADFF868
:102E3000289148F60F7B494F2FE0088810F00F00CB
:102E400089F8000032D007EB8001D1F8002CADF8F2
:102E50000020BDF8002012040BD5D1F8002C02EAA6
:102E60000A02C1F8002C3E4901EB800050F8040C26
:102E70008047BDF8000000060FD599F8000007EB69
:102E80008001D1F8002C02EA0B02C1F8002C354970
:102E900001EB800050F8040C80472D484430006856
:102EA000314908800004C8D4BDE8F88F2868208024
:102EB000208800F030006080208800F4405020809E
:102EC0002868304080F4005080F0200040EA08007C
:102ED00028600888C00617D4296801EA0B01296018
:102EE00001F08EFB28E02188890401D580F4005090
:102EF0006188C90628D46188890601D580F0200040
:102F000040EA08002860CFE72868ADF80000BDF867
:102F10000000000506D5296801EA0A01296007F0CA
:102F2000E7FD09E0BDF800000004B6D5286800EA16
:102F30000A00286005F0F2FF286821883040C904A3
:102F4000D1D580F48050CEE780F01000D3E70000A8
:102F5000005C0040320300202003002000500040AD
:102F60004C040020300400202C04002070B50D4CCF
:102F70000025C4F880510C48016821F470410160BB
:102F8000016841F440510160C4F88C510A2004F5F5
:102F9000C0740DF021FB012020600A200DF01CFB05
:102FA000256070BD00002242001001400C4881697C
:102FB00041F0100181610B4801684FF20F0291430B
:102FC0000160016843F2030211430160C16841F0EE
:102FD0000201C160C16841F00801C1607047000092
:102FE000001002400010014070B50D4C0026C4F8DE
:102FF00080610C48016821F470410160016841F46E
:10300000405101600125C4F88C510A2004F5C074B8
:103010000DF0E2FA25600A200DF0DEFA266070BDA0
:1030200000002242001001402DE9F0478146164879
:103030000024016821F470410160016841F40041FD
:103040000160124E254627464FF00108C6F88071F0
:103050001E200DF0C1FAC6F880816006040ED6F875
:103060000C0108B1641CE4B26D1CEDB2082DEDD367
:10307000B9F1000F04D0FFF779FF2046BDE8F087D3
:10308000FFF7B2FFF9E70000001001400000224204
:103090002DE9F04105461248016821F470410160B4
:1030A000016841F4405101600E4E0027C6F880715E
:1030B0003C464FF00108E809C6F88C016806050E89
:1030C000C6F880810A200DF087FAC6F880710A20C0
:1030D0000DF082FA641CE4B2082CECD3BDE8F08158
:1030E000001001400000224270B50D48016821F433
:1030F00070410160016841F440510160094C0120B8
:10310000C4F88C01C4F880010A2004F5C0740DF0E5
:1031100063FA0025E5600A200DF05EFA256070BDB7
:10312000001001400000224270B50D48016821F4F2
:1031300070410160016841F440510160094C002078
:10314000C4F88001C4F88C010A2004F5C0740DF0A5
:1031500043FA012525600A200DF03EFAE56070BDB6
:10316000001001400000224270B51348002401689D
:1031700021F470410160016841F4004101600F4D8C
:103180000126C5F88C6130460DF026FAC5F880613D
:1031900001200DF021FA07E0641CE4B2FA2C03D9F7
:1031A000FFF7C2FF012070BDD5F80C010028F3D154
:1031B000C5F8800170BD00000010014000002242EF
:1031C000810008480844D0F8001C490409D5D0F80B
:1031D000001C48F68F7211404CF280021143C0F877
:1031E000001C704700500040810008480844D0F897
:1031F000001C490609D5D0F8001C48F68F72114012
:1032000048F2C0021143C0F8001C70470050004053
:10321000810006480844D0F8001C48F68F6211402F
:1032200048F280021143C0F8001C70470050004073
:1032300070B516480024016821F00F010160016893
:1032400041F008010160124D04E0641CE4B2012069
:103250000DF0C2F9D5F8000110B1C82CF5D30DE07E
:10326000C82C0BD2002404E0641CE4B201200DF051
:10327000B3F9D5F8000118B1F02C04D3012070BDCA
:10328000F02CF1D3FAE7002070BD000000080140E7
:103290000000214270B500F0A9F800F087F8FFF7B0
:1032A000C7FFCC2000F0B0F8BE2000F0ADF800F071
:1032B0006DF8044600F06AF8072805D9C043E143D9
:1032C000C0B2CCB2002500E0012504EB002000B222
:1032D000FFF79EF80022054BFEF7ABFFFFF7E3F880
:1032E00000B2002D01D1404200B270BD0000E43FA9
:1032F00038B50121042005F095FE0120ADF800004D
:1033000010208DF803000320074C8DF80200694659
:10331000204600F0B9FC0121204600F031FD00F00C
:1033200045F8FFF785FF38BD0008014070B5154C22
:10333000206820F00F002060206840F0030020602B
:10334000114D0020C5F88001022005F5C0750DF073
:1033500043F901202860206820F00F0020602068D9
:1033600040F0080020600C200DF036F955F8800C74
:1033700008B1012400E0002432200DF02DF9204690
:1033800070BD0000000801400000214270B500251A
:103390000124FFF7CBFFC001641C40EA5500E4B2F2
:1033A000C5B2082CF5D9284670BD00000D4810B5EF
:1033B000016821F00F010160016841F00301016023
:1033C000094C0020C4F8800140F2EE2004F5C074DE
:1033D0000DF002F901202060BDE810400F200DF033
:1033E000FBB80000000801400000214210B5FFF7C3
:1033F000DDFFFFF71DFFCC2000F006F8BDE8104010
:10340000442000F001B800002DE9F04105461448C1
:10341000016821F00F010160016841F003010160C2
:103420000124104E0027A04615F0010F4FEA550564
:10343000C6F8807106D002200DF0CEF8C6F8808163
:103440003C2005E03C200DF0C7F8C6F88081022042
:103450000DF0C2F8641CE4B2082CE5D9BDE8F08197
:1034600000080140000021422DE9F047DFF8949068
:10347000254F4FF03008D9F8001001F11005088AE7
:103480000E7A08B9042E04D0AC88A04215D80426C0
:1034900014E01E480178012903D007261020388047
:1034A0002BE01B4A002112681A4B120403EBD232A4
:1034B0005160A7F8008001701FE00226844200D905
:1034C0000446A968204688478246002000F02CFE6A
:1034D00001462246504608F0AFFF2146002007F083
:1034E0004DFA2888001B2880688820446880A7F847
:1034F000008009494FF440500880D9F80000067256
:10350000BDE8F08724030020340300201C030020C2
:10351000505C004000600040320300202DE9F0477D
:10352000224EDFF88C803027346834F8100FA16801
:10353000A9B100B3A588854200D905462846884729
:1035400081462088401B20806088284460800020BD
:1035500000F0BEFD01462A46484605F003FD2088DE
:1035600048B114494FF4405008800021084607F044
:1035700005FAA8F800702088A188884201D30320AA
:1035800001E020B1052031680872BDE8F08731689C
:1035900006200872084900200968084A090402EB5D
:1035A000D1314860A8F80070EFE700002403002044
:1035B0003403002032030020505C004000600040D3
:1035C000F8B55D4C5D4D09262068002729684278D2
:1035D000062A05D0AAB1082A4DD00A2A50D06BE09D
:1035E0000278520668D18078012804D0022804D0DD
:1035F000032804D060E0C96956E0096A54E0496ACA
:1036000052E04288B2BBC288022A55D102798ABBF5
:103610000278530601D1838833B102F07F02012A78
:1036200004D0022A0CD047E045493DE08A69407940
:1036300000219047F0B92068807A0028F4D13BE05F
:10364000417901F00F0001F070020B063D4901EBDA
:103650008001D1F8001C03D5C1F30111090102E07A
:10366000C1F301310903384B1B78834224D90AB9CD
:103670000029D9D120E0007840061DD1334913E05C
:10368000027802F07F02012A16D1827AA2B1428822
:1036900092B9027982B9C288012A0DD18A6940792A
:1036A0000021904740B92A4931B1206847828161A1
:1036B00000208847002006E02968206809694078D2
:1036C0008847032813D021680A8AA2F57F43FF3B6D
:1036D0000BD002280ED06AB10878000626D5C8881B
:1036E000009082420AD9088218E00E72F8BD206864
:1036F0000672F8BD4FF008000872F8BD0ED22868B7
:10370000144B90F82C00824201D21F7006E0B2FBED
:10371000F0F400FB142008B901201870286890F814
:103720002C008882BDE8F840FFF79EBE0320087297
:10373000094900030880F8BD240300202803002065
:1037400015AE000800500040D4040020A9AD0008C8
:10375000EDAD00081C0300203203002000B587B047
:103760000B4602460DA102A808F02CFF4FF6FF7091
:10377000009040F22B13F0224FF48271002001F0F0
:103780007FFA102002A9CDE900010346C8224FF4B8
:1037900087714B2004F093F907B000BD583A2025FB
:1037A000642C20593A2025640000000004F000BC7D
:1037B00004F03CBC0149086070470000140401405B
:1037C00030B51A4A8379016853B313688B43136089
:1037D000111D0B680468A3430B60017911440B6849
:1037E000046823430B60114B083319680468A14334
:1037F00019601C1D21680568A943216041791029C1
:1038000005D011440A68006802430A6030BD196897
:10381000026811431960216800680143216030BDCE
:103820000079104402688A43026030BD0004014000
:1038300010B503A008F0A2FE08490320086010BDDF
:1038400075736220656E746572206C6F7720706F7F
:10385000776572206D6F64650D0A0000FC0400201E
:10386000FEB50121102005F0DDFB4FF40054ADF84A
:10387000084010208DF80B000320414D8DF80A0000
:1038800002A9284600F000FA2146284600F078FAFE
:103890000226ADF8086048208DF80B0002A92846E2
:1038A00000F0F2F90221284600F06AFAFFF77EFBE9
:1038B000344D0024C5F8B441142005F5DA750CF038
:1038C00069FE0120286032200CF064FE8DF8004073
:1038D00001226946002000F0B3F901226946A420C4
:1038E00000F0AEF916208DF8000001226946802014
:1038F00000F0A6F90C208DF800000122694688200E
:1039000000F09EF902226946A12000F04BF89DF8D4
:103910000000302803D19DF80100032829D004229B
:10392000694648F2401000F0B7FA8DF80440694645
:1039300015A008F023FE1748009948F24005C0F88A
:1039400002108DF8006001226946284600F096FBBF
:1039500001226946E81D00F09FFA0A200CF01AFEC9
:103960008DF8004001226946284600F087FB0020C0
:10397000FEBD43F2030108A008F000FEF7E70000D7
:1039800000100140000022424354502049443A258F
:10399000730D0A00920000204354502049443A25F8
:1039A000780D0A002DE9F04115460F460446FFF751
:1039B0009BFB7020FFF76CFBFFF7D6FBE0B2FFF735
:1039C00067FBFFF7D1FBFFF78FFB7120FFF760FB71
:1039D000FFF7CAFB00246E1E09E0B44201D00120AB
:1039E00000E00020FFF720FB3855641CE4B2AC4235
:1039F000F3D3BDE8F041FFF797BB00002DE9F14795
:103A000083B00027894D8DF804704FF00A0A68785A
:103A1000874C401CC0B2B0FBFAF20AFB1201B84658
:103A2000687009B10A2870D2804882A1801CFEF714
:103A30006EFA4FF0010203A908B30220FFF7B2FFAC
:103A40009DF80C00010760D000F00F01287881423A
:103A50005BD8FF228A40D14394F8209041F0C00106
:103A600084F8201004EB4000A1894181E18A818221
:103A700004200CF08FFD8DF804706F4E85E048F245
:103A80004E16304600F008FA9DF80C000106D7D516
:103A9000297800F00F008842D2D88DF804700122F6
:103AA00001A9304600F0EAFACAE794F82010012292
:103AB0008240114264D05D485EA1801CFEF727FA67
:103AC00020B35E489DF80410042230F811006946C6
:103AD000FFF768FF94F830009DF80010C0079DF8CC
:103AE000010001F00F0139D000EB01219DF8040025
:103AF00004EB4000C1829DF802209DF8031002F003
:103B00000F0201EB022181813AE058E04B489DF819
:103B100004100A30042230F81100694600F0BCF9A4
:103B200094F830009DF80110C0079DF8000000EBEC
:103B300001219DF8040004EB400005D081819DF82F
:103B400002109DF8032018E0C1829DF802109DF834
:103B5000032001EB02213288511AD4E700EB012047
:103B60003188091A9DF8040004EB400081819DF81A
:103B700002209DF8031002F00F0201EB0221C18226
:103B80009DF80400401C8DF804009DF8040029787D
:103B900088428AD3A08931884FF00108884203D82F
:103BA000E08A7188884209D99DF80C0000F00F0066
:103BB000012812D9E089A081208BE0826F701B4818
:103BC0001CA1801CFEF7A3F900289DF80C004FF6FD
:103BD000FF710FD0C00624D01AE0287804EB400013
:103BE0004189A181808AE08280208DF80C0084F8D0
:103BF0002090E4E700F08F00802812D008E020F049
:103C0000800003E0A181E18200F0E00084F8200060
:103C10006878F02801D985F801A004B04046BDE8D5
:103C2000F08794F820000206ECD5E8E79200002027
:103C30005000002039313100F80D0020700B0208CF
:103C40002DE9F04115460E4604460027FFF74CFAD1
:103C50007020FFF71DFAFFF787FAE0B2FFF718FAB6
:103C6000FFF782FA002408E0305DFFF711FAFFF752
:103C70007BFA070003D1641CE4B2AC42F4D3FFF733
:103C800053FA3846BDE8F081F0B5CC78002204F054
:103C90000F03E40601D58C7823430C784FF00F0C0A
:103CA00014F0FF0F4FF0010E1BD005680E880EFABE
:103CB00002F42640A64210D196000CFA06F725EA37
:103CC000070703FA06F5CE783D43282E02D0482E8A
:103CD00002D002E0446100E00461521C082AE5D3EE
:103CE00005600A88FF2A1CD94468002202F10806F0
:103CF0000EFA06F50E882E40AE420ED196000CFA52
:103D000006F7BC4303FA06F7CE783C43282E00D1D1
:103D10004561CE78482E00D10561521C082AE5D3B2
:103D20004460F0BDF0B5144C002801DAE36900E00E
:103D30006368450D2E0185B2C0F30157B540C0F34D
:103D40000342032F05D0C6020AD503269640B3438B
:103D500007E023F07062636823F07063636002E041
:103D6000AB4343F0706201B12A43002801DAE261FB
:103D7000F0BD6260F0BD000000000140416170478D
:103D800001617047FEB50121102005F04BF942F2A8
:103D90000200ADF8080010208DF80B000320324E11
:103DA0008DF80A0002A93046FFF76EFF0221304667
:103DB000FFF7E6FF71143046FFF7E2FFFFF7F6F872
:103DC0002A4D0024C5F8B4410A2005F5DA750CF037
:103DD000E1FB012028600A200CF0DCFB0225ADF895
:103DE000085028208DF80B0002A93046FFF74CFF41
:103DF00002213046FFF7C2FF64200CF0CBFB042207
:103E0000694648F2401000F047F88DF804406946D2
:103E100017A008F0B3FB19A16846FEF778F808BBB5
:103E20008DF8005048F2400501226946284600F00E
:103E300025F901226946E81D00F02EF89DF80010D2
:103E4000602905D20FA008F099FB012000F0F0F8DE
:103E50000A200CF09FFB8DF800400122694628469D
:103E600000F00CF90020FEBD0010014000002242CD
:103E70004354502049443A25730D0A0039313437F0
:103E80000000000044656661756C74205665723AE6
:103E900025640D0A000000002DE9F04115460F468B
:103EA0000446FFF721F92820FFF7F2F8FFF75CF945
:103EB000200AFFF7EDF8FFF757F9E0B2FFF7E8F84F
:103EC000FFF752F9FFF710F92920FFF7E1F8FFF7A4
:103ED0004BF900246E1E09E0B44201D0012000E03D
:103EE0000020FFF7A1F83855641CE4B2AC42F3D3CC
:103EF000BDE8F041FFF718B92DE9F147494E00241C
:103F00004FF00A09307883B0401CC0B2B0FBF9F220
:103F100009FB1201444DA046307009B10A2863D252
:103F200048F24E1A012203A95046FFF7B5FF9DF84B
:103F30000C004FF00007010747D000F00F010629E1
:103F400043D2FF2088408DF80400C04340F0C000F9
:103F500085F820004FF0010895F8201008FA04F0C9
:103F6000014225D031480422694630F81400FFF799
:103F700093FF95F830009DF80110C0079DF80000F0
:103F800000EB012105EB44000AD0C1829DF802102C
:103F90009DF8032001EB0221C1F54871818107E002
:103FA00081819DF802109DF8032001EB0221C1825E
:103FB000641CE4B2052CCFD3A9894FF0010819B9CC
:103FC000E88A08B98DF80C7037709DF80C0001066E
:103FD0000AD500F00F00062806D28DF804700122E1
:103FE00001A9504600F04AF89DF80C0000F08F003F
:103FF00080280ED195F82000010602D520F080001F
:1040000005E04FF6FF71A981E98200F0E00085F834
:1040100020003078F02801D986F8009004B040469E
:10402000BDE8F0879100002050000020660B0208D8
:1040300008B500218DF800108DF801000E489DF89C
:104040000020435C491C1A44C9B28DF80020B829ED
:10405000F5D3D0B2C043401C8DF80000B822064909
:1040600048F2470000F00AF80222694648F2FF00D1
:1040700000F004F8002008BDAE0A02082DE9F04166
:1040800015460E4604460027FFF72EF82820FEF7B7
:10409000FFFFFFF769F8200AFEF7FAFFFFF764F861
:1040A000E0B2FEF7F5FFFFF75FF8002408E0305DAF
:1040B000FEF7EEFFFFF758F8070003D1641CE4B2E7
:1040C000AC42F4D3FFF730F83846BDE8F081000089
:1040D0000549096889B201EBC000044901EB4000C1
:1040E000008980B270470000505C004000600040D2
:1040F0000549096889B201EBC000044901EB4000A1
:104100008089C0F309007047505C004000600040A7
:10411000044901EB8000D0F8000CC0F3013000032B
:1041200070470000005000400449096889B201EB63
:10413000C000034931F8100080B27047505C004065
:104140000060004010B50B4C0146072301222046B9
:10415000FEF72AFC01212046FEF765FC02212046DD
:10416000FEF7F0FB0028F9D02046BDE81040FEF72E
:10417000E6BB0000002401402DE9F041154602464F
:104180000C46680700D0012000EBD5006843C1B29F
:1041900010785378812809D3402B07D3FF2B05D003
:1041A000FF2803D07F2B0CD2403B0BE000221046AF
:1041B00003E0521C04F8010BD2B28A42F9D3BDE8E5
:1041C000F081413B8138DAB2C0B2C0EB401303EB5F
:1041D000801002EB40064E43FBF7C6FF07460F4830
:1041E0000C2D04D0102D07D0182D0CD110E0D0F8D4
:1041F00009008119182203E0D0F81100811920224A
:10420000204606F0FBF93846BDE8F041FBF7B0BFA9
:10421000D0F8190081194822F2E70000D8A3002045
:1042200008B1044870470449012009680882002049
:104230007047000068040020240300200A4810B5DD
:104240000168001D0468001D006808180BD00822D2
:10425000064900F003FA054920460422BDE8104053
:10426000103100F0FBB910BDE8F7FF1F1204002069
:1042700070B500252C461020FFF764FF284485B256
:1042800001200CF087F9641CE4B2142CF3D3142041
:10429000B5FBF0F0FEF7CDF84FF066320D4BFDF7B1
:1042A000C8FFFEF763F9FEF736F90B4A0B4BFDF733
:1042B000BDFF0B4A0B4BFEF72EF800220A4BFDF711
:1042C00011FFFEF753F90949FDF790FEBDE8704074
:1042D000FEF7BCB866664A3FE17A14AE47E1F63FA6
:1042E00022FDF675E09C713F00003940000020413E
:1042F00010B51A480024016819A008F03FF91748C2
:10430000001D016819A008F039F914480830016847
:1043100019A008F033F911481430016819A008F009
:104320002DF91B49D1F8880198B10020C1F8880106
:10433000184A1949641CD2F8A001E4B258B100200F
:10434000C2F8A0010020401C8842FCD3052CF1D308
:1043500010BD0120EAE70120F2E7000028ED00E0AF
:10436000434653523A2538580D0A000048465352E6
:104370003A2538580D0A0000444653523A25385819
:104380000D0A0000414653523A2538580D0A0000E4
:104390000080224200002142FFFF1F0070B50D4C3B
:1043A0000025C4F8B0510C48416821F470414160C7
:1043B000416841F440514160C4F8AC51022004F519
:1043C000D6740CF009F90120606002200CF004F9A9
:1043D000656070BD000022420010014008B5012157
:1043E000102004F01FFE4FF4C050ADF80000102064
:1043F0008DF8030003208DF8020069460448FFF79A
:1044000043FC04480121C0F8B011C0F8AC1108BD4C
:10441000001001400000224270B50D4C0026C4F887
:10442000B0610C48416821F470414160416841F439
:10443000405141600125C4F8AC51022004F5D67406
:104440000CF0CAF8656002200CF0C6F8666070BD1A
:1044500000002242001001402DE9F0478146174834
:104460000024416821F470414160416841F40041F9
:104470004160134E254627464FF00108C6F8B0713B
:1044800002200CF0A9F8C6F8B0816006040ED6F838
:104490002C0108B1641CE4B201200CF09DF86D1CE5
:1044A000EDB2082DEAD3B9F1000F04D0FFF776FF83
:1044B0002046BDE8F087FFF7AFFFF9E700100140A5
:1044C000000022422DE9F04105461448416821F4DC
:1044D00070414160416841F440514160104E0027F5
:1044E000C6F8B0713C464FF00108E809C6F8AC01C7
:1044F0006806050E02200CF06FF8C6F8B0810220A5
:104500000CF06AF8C6F8B07102200CF065F8641C73
:10451000E4B2082CE9D3BDE8F081000000100140AE
:104520000000224270B50D48416821F4704141609D
:10453000416841F440514160094C0120C4F8AC018C
:10454000C4F8B001042004F5D6740CF045F8002539
:10455000256004200CF040F8656070BD001001403B
:10456000000022420E4810B5416821F470414160BC
:10457000416841F4405141600A4C0020C4F8B00148
:10458000C4F8AC01042004F5D6740CF025F8012021
:1045900060602060BDE8104004200CF01DB80000F1
:1045A000001001400000224270B513480024416809
:1045B00021F470414160416841F4004141600F4D78
:1045C0000126C5F8AC6130460CF006F8C5F8B061BC
:1045D00001200CF001F807E0641CE4B2FA2C03D9C6
:1045E000FFF7C0FF012070BDD5F82C010028F3D1E2
:1045F000C5F8B00170BD000000100140000022426B
:1046000010B5134C2068017A022904D0042902D085
:10461000062905D015E0FEF727FF2068007A11E093
:104620004178052909D10178490606D1C07806F0FC
:1046300017F908480068006A8047074800688068E2
:104640008047082021680872BDE8104004F0A0BC33
:10465000240300202C03002028030020F0B50023B1
:104660000A24302537261F4610E0B4EB107F02D90C
:1046700005EB107C01E006EB107C01F813C001EBA8
:10468000430C00015B1C8CF80170DBB29342ECD34D
:10469000F0BD81070CD16421B0FBF1F201FB1201E6
:1046A00041B94FF4C871B0FBF1F201FB120008B13F
:1046B000002070470120704770B50D4C0D4D60789B
:1046C00010B1D5F8140120B1D5F8140101280AD091
:1046D0000BE00A200BF05EFF00206070D5F814019B
:1046E00018B9012070BD01206070002070BD00006D
:1046F000380000200000224238B50121142004F0C7
:1047000091FC01211148FFF70DFB4FF40040ADF87B
:1047100000000F4D48248DF8034069462846FFF7F6
:10472000B3FA2021ADF800108DF80340694609481E
:10473000FFF7AAFA0120ADF8000028208DF8030049
:1047400069462846FFF7A0FA38BD00000002300095
:10475000000801400010014070B51C4C1C4E1D4D5E
:10476000012108B1217001E0207848B1D6F8140188
:1047700058B1D5F83C0140B1D5F80001012804D06A
:10478000D6F81401012816D01DE00A200BF002FF14
:1047900000202070D6F8140138B1D5F83C0130B1B2
:1047A000D5F80001012804D00DE0012070BD0220E1
:1047B00070BD032070BDD5F83C01012803D1D5F8A8
:1047C000000100B92170002070BD000038000020F9
:1047D0000000224200002142F0B50E4906460024A6
:1047E00008884D8821464543204602F0CDFF03F05E
:1047F000F7F909494FF480774B15084A802006E005
:104800000F614B611660486108610B61641CAC422A
:10481000F6D3F0BDF80D0020001001400C0C014053
:104820002DE9F04F8346A2EB0B00401C894685B270
:10483000A3EB0900401C1FFA80FA0024099E21E026
:1048400009EB040081B2584602F09EFF03F0C8F95C
:104850000E4900204B154FF480780D4A80270DE05B
:10486000C1F810804B6104FB050C36F81CC0C2F87F
:1048700000C04F610F610B61401C80B2A842EFD3B2
:10488000641CA4B25445DBD3BDE8F08F0010014096
:104890000C0C01402DE9F04F2B4B2C271946987139
:1048A0002B2589884FF4305A4FF4285B4FF4487415
:1048B00041F6631E2A264FF0F00845F210594FF4D6
:1048C000A07C4FF4F072C8B1A3F800C0A3F8028036
:1048D000494533D1A3F808A0A3F80AB0280298816B
:1048E0001C805A80A1F5A640103802D11A80A3F886
:1048F00002C0BDE8F04F002002F006BEA3F8008021
:10490000A3F802C0494507D1A3F808A0A3F80AB04C
:104910004FF42C50988104E071451F8104D15D81D2
:104920009E811A805C8001E05E819D81A1F5A64098
:104930001038DED1A3F800C05A80DAE71F815E810B
:1049400071459D81CCD0CDE7F80D00202DE9FE4FBB
:104950000026A2EB000882465F1A701E3546894683
:10496000B8F1000F02DD4FF0010102E003D14FF07A
:104970000001019102E0C8F100080190002F02DD62
:104980004FF0010002E003D14FF00000009002E080
:10499000C7F1000700904046B84501DD044600E03D
:1049A0003C46601C4FF0000B029015E01FFA89F1A5
:1049B0001FFA8AF000F016F846443D44A64202DD94
:1049C0000199361B8A44A54202DD00992D1B8944BA
:1049D0000BF101001FFA80FB02998B45E6DDBDE873
:1049E000FE8F000000B502F0CFFE03F0F9F8074893
:1049F0004FF48071016141154161054A054B1288F0
:104A00001A60802242610261016100BD0010014014
:104A10003E0000200C0C01402DE9FC4F8046002494
:104A2000154603200F46A0EB450649E0781B81B2EE
:104A300008EB040A01901FFA8AF0FFF7D3FF381B36
:104A400081B208EB050900901FFA89F0FFF7CAFF51
:104A500007EB040B1FFA8BF11FFA89F0FFF7C2FF77
:104A600007EB05091FFA89F11FFA8AF0FFF7BAFF71
:104A7000A8EB040A1FFA89F11FFA8AF0FFF7B2FFC8
:104A8000A8EB05091FFA8BF11FFA89F0FFF7AAFFBF
:104A9000019881B21FFA8AF0FFF7A4FF009881B253
:104AA0001FFA89F0FFF79EFF641C002E03DA06EB65
:104AB0008406B61D04E0601B06EB80066D1E0A36F8
:104AC000AC42B3DDBDE8FC8F2DE9F74F07466948DE
:104AD000694C3E0A828865154089A2F5AA4301F017
:104AE000FF094FEA112807F0FF0A103B2BD061495C
:104AF000A2F5C853633B54D003F060F84FF4807BB9
:104B0000C4F810B065615D4F3E6080266661266125
:104B10002561C4F810B06561C7F800A06661266120
:104B200025615448808903F049F8C4F810B06561E4
:104B3000C7F80080666126612561C4F810B0656120
:104B4000C7F800907EE003F039F84FF4807BC4F89A
:104B500010B06561494F3E6080266661266125611F
:104B600044484089401C80B203F028F8C4F810B0D3
:104B70006561C7F800A06661266125613D488089AE
:104B800003F01CF8C4F810B06561C7F800806661D6
:104B90002661256137488089401C80B203F00EF8F9
:104BA000CBE78A791AB90A88D21B521E97B203F052
:104BB00005F84FF4807AC4F810A06561DFF8BCB046
:104BC000380ACBF800008026666126612561C4F8AA
:104BD00010A06561F9B2CBF800106661266125610D
:104BE000C4F810A06561CBF80000666126612561FC
:104BF000C4F810A06561CBF80010666126612561DC
:104C00001C48808902F0DAFFC4F810A0656159469B
:104C1000CBF80080666126612561C4F810A065614B
:104C2000CBF80090666126612561C4F810A065612B
:104C3000CBF80080666126612561C4F810A065612B
:104C4000C1F800906661266125614FF48071616151
:104C500065610848094A0089106080206061206110
:104C600025612161656102991160606120612561A2
:104C7000BDE8FE8FF80D0020001001400C0C014033
:104C80002DE9FF4F984600980C46101A401C86B23A
:104C90004FF4807B114F4FF400794FF0800A0D9D47
:104CA00018E02146009802F06FFD02F099FF002005
:104CB000DC464A460A4B514608E0C7F810C07A6104
:104CC0001D60796139613A61401C80B2B042F4D311
:104CD000641CA4B24445E4D9BDE8FF8F0010014034
:104CE0000C0C01402DE9F84F0121192004F09AF92C
:104CF0000121FE48FFF716F84FF4F860ADF8000008
:104D000010208DF803004FF0030B8DF802B06946B8
:104D1000F748FEF7B9FF4FF4F861F548FFF730F8B0
:104D20004FF6FF70F34CADF8000069462046FEF7E1
:104D3000ABFF4FF6FF712046FFF722F832200BF051
:104D400029FC0121002002F051FF32200BF022FC4F
:104D5000D32002F033FF02F02FFBE74CA08002F0DB
:104D60002BFBA08002F028FB4FF6FF7101EA002028
:104D7000A08002F021FBA18849F241380843A080BD
:104D800047F2897545F2103745F2105941F6631A1A
:104D9000404579D0042002F011FF02F00DFBA08005
:104DA00002F00AFBA08002F007FB4FF6FF7606EA4E
:104DB0000020A08002F000FBA1880843A0F5054177
:104DC000A08052395CD0A8425ED0D42002F0F6FE1A
:104DD00002F0F2FAA08002F0EFFAA08002F0ECFA02
:104DE00006EA0020A08002F0E7FAA1880843A0802C
:104DF000B84249D055214FF4704002F0F7FEAA2185
:104E00004FF2010002F0F2FE52214FF2020002F0D6
:104E1000EDFE08214FF2030002F0E8FE01214FF2FF
:104E2000040002F0E3FE4FF4454002F0C7FE02F03A
:104E3000C3FA06EA0020A0804CF2015002F0BEFE48
:104E400002F0BAFAA1880843A08005200BF0A2FB6B
:104E5000A188494518D0A12002F0B0FE02F0ACFABA
:104E6000A08002F0A9FA06EA0020A08002F0A4FACD
:104E7000A1880843A0F5AE41A080613902D003E0CB
:104E8000A58001E0A4F804A0A1889CA007F076FB0F
:104E9000A08840457ED1CF2002F090FE002002F095
:104EA0007BFEC12002F078FE302002F075FEED207E
:104EB00002F084FE642002F06FFE032002F06CFE1C
:104EC000122002F069FE812002F066FEE82002F066
:104ED00075FE852002F060FE102002F05DFE7A2053
:104EE00002F05AFECB2002F069FE392002F054FE97
:104EF0002C2002F051FE002002F04EFE342002F081
:104F00004BFE022002F048FEF72002F057FE202060
:104F100002F042FEEA2002F051FE002002F03CFEC8
:104F2000002002F039FEC02002F048FE1B2002F0F3
:104F300033FEC12002F042FE012002F02DFEC5200A
:104F400002F03CFE302002F027FE302002F024FE6A
:104F5000C72002F033FEB72002F01EFE362002F01A
:104F60002DFE482002F018FE3A2002F027FE5520C0
:104F700002F012FEB12002F021FE002002F00CFE31
:104F80001A2002F009FEB62002F018FE0A2002F0F4
:104F900003FE00E093E0A22002F0FEFDF22002F00A
:104FA0000DFE002002F0F8FD262002F007FE012091
:104FB00002F0F2FDE02002F001FE0F2002F0ECFD15
:104FC0002A2002F0E9FD282002F0E6FD082002F088
:104FD000E3FD0E2002F0E0FD082002F0DDFD54208C
:104FE00002F0DAFDA92002F0D7FD432002F0D4FD43
:104FF0000A2002F0D1FD0F2002F0CEFD002002F0C9
:10500000CBFD002002F0C8FD002002F0C5FD00200D
:1050100002F0C2FDE12002F0D1FD002002F0BCFD53
:10502000152002F0B9FD172002F0B6FD072002F0AE
:10503000B3FD112002F0B0FD062002F0ADFD2B20E3
:1050400002F0AAFD562002F0A7FD3C2002F0A4FDCC
:10505000052002F0A1FD102002F09EFD0F2002F0BD
:105060009BFD3F2002F098FD3F2002F095FD0F20B0
:1050700002F092FD2B2002F0A1FD002002F08CFD39
:10508000002002F089FD012002F086FD3F2002F0A1
:1050900083FD2A2002F092FD002002F07DFD002019
:1050A00002F07AFD002002F077FDEF2002F074FD9F
:1050B000112002F083FD78200BF06CFAE4E0A842A6
:1050C0007ED1112002F07AFD78200BF063FA3620B1
:1050D00002F074FD002002F05FFD3A2002F06EFD48
:1050E000052002F059FDB22010E00000000230005F
:1050F00000100140000C0140F80D0020204C4344FA
:105100002049443A25780D0A0000000002F056FDBF
:105110000C2002F041FD0C2002F03EFD002002F0C8
:105120003BFD332002F038FD332002F035FDB7207F
:1051300002F044FD352002F02FFDBB2002F03EFDC1
:10514000322002F029FDC02002F038FD0C2002F0D0
:1051500023FDC22002F032FD012002F01DFDC3201C
:1051600002F02CFD102002F017FDC42002F026FDF5
:10517000202002F011FDC62002F020FD0F2002F0D9
:105180000BFDD02002F01AFDA42002F005FDA120A5
:1051900002F002FDE02002F011FDD02002F0FCFC44
:1051A000002002F0F9FC022002F0F6FC072002F0D9
:1051B000F3FC0A2002F0F0FC282002F0EDFC00E0F5
:1051C00065E0322002F0E8FC442002F0E5FC4220D9
:1051D00002F0E2FC062002F0DFFC0E2002F0DCFC14
:1051E000122002F0D9FC142002F0D6FC172002F0A5
:1051F000D3FCE12002F0E2FCD02002F0CDFC002044
:1052000002F0CAFC022002F0C7FC072002F0C4FC36
:105210000A2002F0C1FC282002F0BEFC312002F07E
:10522000BBFC542002F0B8FC472002F0B5FC0E2075
:1052300002F0B2FC1C2002F0AFFC172002F0ACFC24
:105240001B2002F0A9FC1E2002F0A6FC2A2002F07E
:10525000B5FC002002F0A0FC002002F09DFC002024
:1052600002F09AFCEF2002F097FC2B2002F0A6FC43
:10527000002002F091FC002002F08EFC012002F0E0
:105280008BFC3F2002F088FC292001F0FBBEB842D5
:105290007ED1ED2002F092FC012002F07DFCFE2088
:1052A00002F07AFCEE2002F089FCDE2002F074FCB1
:1052B000212002F071FCF12002F080FC012002F0BC
:1052C0006BFCDF2002F07AFC102002F065FCC420A9
:1052D00002F074FC8F2002F05FFCC62002F06EFC2E
:1052E000002002F059FCE22002F056FCE22002F01D
:1052F00053FCE22002F050FCBF2002F05FFCAA2029
:1053000002F04AFCB02002F059FC0D2002F044FCEF
:10531000002002F041FC0D2002F03EFC002002F0D3
:105320003BFC112002F038FC002002F035FC192073
:1053300002F032FC002002F02FFC212002F02CFCB5
:10534000002002F029FC2D2002F026FC002002F0B3
:1053500023FC3D2002F020FC002002F01DFC5D201B
:1053600002F01AFC002002F017FC5D2002F014FC91
:10537000002002F011FCB12002F020FC802002F09D
:105380000BFC002002F008FC8B2002F005FC00E082
:10539000FDE3002002F000FC962002F0FDFB00205F
:1053A00002F0FAFBB22002F009FC002002F0F4FB4C
:1053B000002002F0F1FB022002F0EEFB002002F0E0
:1053C000EBFB032002F0E8FB002002F0E5FBB3203A
:1053D00002F0F4FB002002F0DFFB002002F0DCFB17
:1053E000002002F0D9FB002002F0D6FB002002F0E2
:1053F000D3FB002002F0D0FB002002F0CDFB002008
:1054000002F0CAFB002002F0C7FB002002F0C4FB40
:10541000002002F0C1FB002002F0BEFB002002F0E1
:10542000BBFB002002F0B8FB002002F0B5FB00201F
:1054300002F0B2FB002002F0AFFB002002F0ACFB58
:10544000002002F0A9FB002002F0A6FB002002F0E1
:10545000A3FB002002F0A0FB002002F09DFB002037
:1054600002F09AFBB42002F0A9FB8B2002F094FB1F
:10547000002002F091FB962002F08EFB002002F04B
:105480008BFBA12002F088FB002002F085FBB520F9
:1054900002F094FB022002F07FFB002002F07CFB74
:1054A000032002F079FB002002F076FB042002F0DA
:1054B00073FB002002F070FBB62002F07FFB00209F
:1054C00002F06AFB002002F067FBB72002F076FBD7
:1054D000002002F061FB002002F05EFB3F2002F0A2
:1054E0005BFB002002F058FB5E2002F055FB002021
:1054F00002F052FB642002F04FFB002002F04CFB54
:105500008C2002F049FB002002F046FBAC2002F0A8
:1055100043FB002002F040FBDC2002F03DFB0020BA
:1055200002F03AFB702002F037FB002002F034FB5F
:10553000902002F031FB002002F02EFBEB2002F065
:105540002BFB002002F028FBDC2002F025FB0020D2
:1055500002F022FBB82002F031FB002002F01CFB1D
:10556000002002F019FB002002F016FB002002F0E0
:1055700013FB002002F010FB002002F00DFB0020C6
:1055800002F00AFB002002F007FBBA2002F016FB33
:10559000242002F001FB002002F0FEFA002002F0BD
:1055A000FBFA002002F0F8FAC12002F007FB2020ED
:1055B00002F0F2FA002002F0EFFA542002F0ECFAC6
:1055C000002002F0E9FAFF2002F0E6FA002002F0E3
:1055D000E3FAC22002F0F2FA0A2002F0DDFA00201B
:1055E00002F0DAFA042002F0D7FA002002F0D4FA2E
:1055F000C32002F0E3FA3C2002F0CEFA002002F0D1
:10560000CBFA3A2002F0C8FA002002F0C5FA39209D
:1056100002F0C2FA002002F0BFFA372002F0BCFA12
:10562000002002F0B9FA3C2002F0B6FA002002F0A5
:10563000B3FA362002F0B0FA002002F0ADFA3220C0
:1056400002F0AAFA002002F0A7FA2F2002F0A4FA32
:10565000002002F0A1FA2C2002F09EFA002002F0B5
:105660009BFA292002F098FA002002F095FA2620F1
:1056700002F092FA002002F08FFA242002F08CFA55
:10568000002002F089FA242002F086FA002002F0BD
:1056900083FA232002F080FA002002F07DFA3C20F9
:1056A00002F07AFA002002F077FA362002F074FA5B
:1056B000002002F071FA322002F06EFA002002F0AF
:1056C0006BFA2F2002F068FA002002F065FA2C2015
:1056D00002F062FA002002F05FFA292002F05CFA80
:1056E000002002F059FA262002F056FA002002F0BB
:1056F00053FA242002F050FA002002F04DFA242040
:1057000002F04AFA002002F047FA232002F044FA9D
:10571000002002F041FAC42002F050FA622002F0A8
:105720003BFA002002F038FA052002F035FA00209A
:1057300002F032FA842002F02FFA002002F02CFA54
:10574000F02002F029FA002002F026FA182002F0D8
:1057500023FA002002F020FAA42002F01DFA002013
:1057600002F01AFA182002F017FA002002F014FAD8
:10577000502002F011FA002002F00EFA0C2002F084
:105780000BFA002002F008FA172002F005FA0020B8
:1057900002F002FA952002F0FFF9002002F0FCF975
:1057A000F32002F0F9F9002002F0F6F9E62002F009
:1057B000F3F9002002F0F0F9C52002F0FFF93220E1
:1057C00002F0EAF9002002F0E7F9442002F0E4F9DF
:1057D000002002F0E1F9652002F0DEF9002002F07D
:1057E000DBF9762002F0D8F9002002F0D5F9882004
:1057F00002F0D2F9002002F0CFF9C62002F0DEF963
:10580000202002F0C9F9002002F0C6F9172002F0AA
:10581000C3F9002002F0C0F9012002F0BDF9002018
:1058200002F0BAF9C72002F0C9F9002002F0B4F979
:10583000002002F0B1F9002002F0AEF9002002F0E1
:10584000ABF9C82002F0BAF9002002F0A5F9002057
:1058500002F0A2F9002002F09FF9002002F09CF96A
:10586000C92002F0ABF9002002F096F9002002F006
:1058700093F9002002F090F9002002F08DF9002049
:1058800002F08AF9002002F087F9002002F084F982
:10589000002002F081F9002002F07EF9002002F0E1
:1058A0007BF9002002F078F9002002F075F9002061
:1058B00002F072F9002002F06FF9002002F06CF99A
:1058C000002002F069F9E02002F078F9162002F0D9
:1058D00063F9002002F060F91C2002F05DF900205D
:1058E00002F05AF9212002F057F9002002F054F991
:1058F000362002F051F9002002F04EF9462002F065
:105900004BF9002002F048F9522002F045F900203E
:1059100002F042F9642002F03FF9002002F03CF965
:105920007A2002F039F9002002F036F98B2002F0DB
:1059300033F9002002F030F9992002F02DF900200F
:1059400002F02AF9A82002F027F9002002F024F939
:10595000B92002F021F9002002F01EF9C42002F063
:105960001BF9002002F018F9CA2002F015F90020F6
:1059700002F012F9D22002F00FF9002002F00CF927
:10598000D92002F009F9002002F006F9E02002F027
:1059900003F9002002F000F9F32002F0FDF80020E6
:1059A00002F0FAF8E12002F009F9162002F0F4F80A
:1059B000002002F0F1F81C2002F0EEF8002002F0C6
:1059C000EBF8222002F0E8F8002002F0E5F836209B
:1059D00002F0E2F8002002F0DFF8452002F0DCF8E7
:1059E000002002F0D9F8522002F0D6F8002002F090
:1059F000D3F8642002F0D0F8002002F0CDF87A202D
:105A000002F0CAF8002002F0C7F88B2002F0C4F8B8
:105A1000002002F0C1F8992002F0BEF8002002F048
:105A2000BBF8A82002F0B8F8002002F0B5F8B920C1
:105A300002F0B2F8002002F0AFF8C42002F0ACF897
:105A4000002002F0A9F8CA2002F0A6F8002002F017
:105A5000A3F8D22002F0A0F8002002F09DF8D82090
:105A600002F09AF8002002F097F8E02002F094F893
:105A7000002002F091F8F32002F08EF8002002F0EE
:105A80008BF8E22002F09AF8052002F085F8002059
:105A900002F082F80B2002F07FF8002002F07CF880
:105AA0001B2002F079F8002002F076F8342002F092
:105AB00073F8002002F070F8442002F06DF8002026
:105AC00002F06AF84F2002F067F8002002F064F854
:105AD000612002F061F8002002F05EF8792002F007
